:020000040800F2
:1000000060050020D5000008250B000865060008E3
:1000100000000000000000000000000000000000E0
:10002000000000000000000000000000E10C0008DB
:100030000000000000000000190C0008E30C00089C
:10004000000000000000000000000000E7000008C1
:10005000E7000008E7000008E7000008E7000008E4
:100060000000000000000000000000000000000090
:10007000E7000008E7000008E700000800000000B3
:10008000000000001D0B000800000000E700000851
:10009000000000000000000000000000E700000871
:1000A00000000000E700000800000000E700000872
:1000B0000000000000000000000000000000000040
:1000C0000348854600F050F8004800472919000809
:1000D000600500200448804704480047FEE7FEE72B
:1000E000FEE7FEE7FEE7FEE7E50C0008C1000008BA
:1000F00030B50B46014600202022012409E00D46C0
:10010000D5409D4205D31D469540491B2546954047
:1001100040191546521E002DF1DC30BD70B500248B
:100120002546002801DA01244042002901DA012590
:100130004942FFF7DDFFAC4200D04042002C00D026
:10014000494270BDD2B201E00270401C491EFBD290
:1001500070470022F6E710B513460A4604461946D2
:10016000FFF7F0FF204610BD064C0125064E05E0C6
:10017000E36807CC2B430C3C98471034B442F7D3C8
:10018000FFF7A2FFA81B0008C81B000810B50D4808
:1001900000F072FA002813D100BF0A4880680A49AB
:1001A0000840090740180749886000BF00BF00BF2A
:1001B00004488068C00F0028F9D1012000F094FCA9
:1001C00010BD000000240140E8FFFF7F08B50120BA
:1001D0003A49496B0143394A51631146496B014021
:1001E000009100BF00BF032208210520000700F096
:1001F00004FB032210210520000700F0FEFA012075
:1002000040072F4909690901090901432C4A116175
:1002100000BF00201146C968182291430143284AB3
:10022000D16000BF00BF1146C9682022914301433D
:10023000234AD16000BF00BF1146C9680122920362
:10024000914301431E4AD16000BF0720114649690E
:1002500081430143516100BF00201146C968372224
:10026000920191430143164AD16000BF00BF11467D
:10027000C968521491430143114AD16000BF9014E0
:100280001146C9680246914301430D4AD16000BF3F
:1002900000201146C9680122120491430143084A13
:1002A000D16000BF00BF074909680322920591434E
:1002B0000143044A116000BF08BD00000010024065
:1002C000002401400827014070B5044600251D4860
:1002D00000F0D2F9002802D01A4800F0C5F900BF9A
:1002E0006005400D1749886200BF00F02FF800BF7D
:1002F0001448806814490840001D1249886000BFF6
:1003000000BF00BF0F480068042108408008002893
:10031000F7D000BF04200B49086000BF00BF0846AB
:10032000006C80B20546084600F09EF900BF054803
:10033000806A6105490D88430249886200BF2846EA
:1003400070BD000000240140E8FFFF7F10B500BF32
:100350000548806805490840401C0349886000BF83
:10036000012000F0C1FB10BD00240140E8FFFF7F29
:1003700010B50021112000F013FC11200121814053
:10038000054A116000BF00BF04488068022108438D
:100390000249886000BF10BD00E100E0007C004021
:1003A00070B500BF1648006A01210843144908626D
:1003B00000BF00BF00BF1248006A02210840400889
:1003C0000028F7D048040E4C6469FF252D022C400C
:1003D00021460B4C64692C40A2080C46144323466A
:1003E000074C64690325AD04AC4305461D432C430B
:1003F000034D6C6100BF400300F046F970BD000082
:100400004010024010B58EB0044601203149496BBE
:100410000143304A51631146496B0140009100BFCE
:1004200000BF80032B49403109680143294A40320B
:100430001160114609680140009100BF00BF4020D3
:1004400008900220099003200A9000200B900120C0
:100450000C900D9008A90520000700F04DF98020B0
:10046000089003200D9008A90520000700F044F92A
:1004700000211B2000F058FB1B2001218140164A5F
:10048000116000BF7D2000030190002002900390C6
:1004900004900C20059000200690079001A92046AA
:1004A00000F03CFA00BF20690121C90288432061A5
:1004B000606908218843606100BF00BFE06889026D
:1004C0000843E06000BF01220449054800F09AF8A3
:1004D0000EB010BD0010024000E100E0340000202A
:1004E0000038014010B501F087FA0120000700F044
:1004F000CBF801208003124909680322920391433B
:1005000001430F4A116000BF0120114609684204EF
:100510009143420411430A4A116000BF00BF0948D9
:100520000069042108430749086100BF30BF00BFCC
:1005300008460069042188430249086100BF10BDD4
:100540000070004000ED00E000BF0B480068022191
:100550000840400800280ED000BF074880680840C7
:100560004008002807D000BF0348406808430249FC
:10057000486000BF00BF7047007C004010B500BF5E
:100580001E480068FF21013108431C49086000BF74
:1005900000BF00BF19480068012189020840800A95
:1005A0000028F6D00020154989680F2212029143D5
:1005B0000143124A916000BF00BF11468968C90813
:1005C000C9000143916000BF00BF00BF0B488068B5
:1005D000382108400028F8D100BF0849896807225F
:1005E000120391430143054A916000BF044800F0A3
:1005F0002FF9034800F070F910BD00000010024010
:1006000000366E0110B50D4B19600D4B1A800D4B65
:100610001A8000BFC368FF2401342343C36000BFB6
:1006200000BF436901242343436100BF00BFC36887
:1006300020242343C36000BF10BD00001800002029
:100640001C0000201E00002008B505494143009110
:1006500000BF00BF00994A1E00920029F9D108BDD1
:10066000B80B000000BFFEE78168024A1140891CF8
:1006700081607047E8FFFF7F01468868C007C00FB0
:10068000012250405040704708B50549C96B0143ED
:10069000034AD1631146C96B0140009100BF08BDF8
:1006A0000010024070B50446002505200007844272
:1006B00006D1012000F0BCF8012000F0C1F814E0E0
:1006C0000B48844206D1022000F0B2F8022000F06C
:1006D000B7F80AE00748844206D1042000F0A8F8E1
:1006E000042000F0ADF800E00125284670BD0000B0
:1006F0000004005000080050F0B502460B460026EA
:1007000061E00124B4401968214000295AD058689A
:1007100014680D464D436F00ED19AC430D464D4333
:1007200045432C43146000BF5868012802D0586824
:1007300002280DD1986894680D464D436F00ED195D
:10074000AC430D464D4345432C43946000BF00BF6E
:100750001869D4680D464D436F00ED19AC430D4642
:100760004D4345432C43D46000BF5868022829D12B
:10077000FF2911D85869146A0D464D434D434D4326
:10078000EF007D1BAC430D464D434D434D43454368
:100790002C43146200BF15E05F69080A40430C0A4D
:1007A00060430C0A6043C400241A506AA0430C0A38
:1007B00064430D0A6C430D0A6C437C432043506232
:1007C00000BF00BF761C1868F040002899D1586817
:1007D000012802D05868022809D1DC6818685568D9
:1007E0008543074667433D43556000BF00BF002077
:1007F000F0BD816270478162704730B503680C4676
:100800004C4365006419A3430C464C4354432343B3
:10081000036030BD08B50549496B0143034A516384
:100820001146496B0140009100BF08BD0010024015
:100830000249496A0143014A51627047001002406F
:100840000249496A8143014A5162704700100240DF
:1008500070B504467D25ED0029462046FFF748FC8B
:10086000401E04494861002088610520086100BFDE
:1008700070BD000000E000E030B50246002000BF7F
:100880001369DB07DB0F012463406340002B01D0B9
:10089000012007E04C680B682343D468024D2C40CC
:1008A0002343D36030BD0000FFF1BFFF02488068E2
:1008B00038210840704700000010024010B504467F
:1008C00000F0D6F92060206800F0A8F96060606848
:1008D00000F0BAF9A06010BD01490860704700003F
:1008E0000000002010B5014600220A4881420ED1C6
:1008F00001208003084B1B6B0343074C236300BF9D
:1009000000BF23461B6B8343236300BF00E001222B
:10091000104610BD0038014000100240FEB50546EB
:100920000C4601270026284600F03CF800282FD16D
:10093000E1686068084321690843E968154A114085
:100940000843E8606869F9028843A169084368615F
:10095000A06829697A0391430143296100BF606956
:1009600069690322120291430143696100BF68462D
:10097000FFF7A4FF029E002E0AD02068002807D0AF
:100980000027314628462368A26900F012F800BF0C
:100990003846FEBDF3E9FFFF0146086840221040DB
:1009A000800970470146C868012252031040400B7D
:1009B0007047FFB583B00C461D460121C90205985A
:1009C000884247D16900192262431046FFF790FB25
:1009D00006466421FFF78CFB070169001922624378
:1009E0001046FFF785FB0646690019226243104650
:1009F000FFF77EFB64210190FFF77AFB64214843F7
:100A0000301AC00032300290FFF772FBF821084024
:100A100040003F186900192262431046FFF768FB47
:100A200006466900192262431046FFF761FB642104
:100A30000190FFF75DFB64214843301AC00032305B
:100A40000290FFF755FB4007400F381881B203981A
:100A5000816045E0A900192262431046FFF748FB78
:100A600006466421FFF744FB0701A90019226243EF
:100A70001046FFF73DFB0646A900192262431046C7
:100A8000FFF736FB64210190FFF732FB64214843F6
:100A9000301A000132300290FFF72AFBF0210840A3
:100AA0003F18A900192262431046FFF721FB0646B2
:100AB000A900192262431046FFF71AFB6421019036
:100AC000FFF716FB64214843301A000132300290D0
:100AD000FFF70EFB0007000F381881B20398816002
:100AE00007B0F0BD4160704708B501460A4A126977
:100AF000009200BF0846421C002A00D0401C07E0BC
:100B0000054A126901231B041A40002A00D0401E26
:100B10000028F5D108BD000000E000E010B5FFF7A7
:100B200013FD10BD7047000010B5002819DA1A4AED
:100B300003071B0F083B9B089B00D2588307DC0E62
:100B4000FF23A3409A438B071B0E8407E40EA340A8
:100B50001A43114B0407240F083CA408A4001A519F
:100B600018E00E4A03231B02D21883089B00D258B8
:100B70008307DC0EFF23A3409A438B071B0E8407D9
:100B8000E40EA3401A43054B032424021B198408D6
:100B9000A4001A5110BD00001CED00E000E100E0CF
:100BA00010B5002819DA1A4A03071B0F083B9B08E7
:100BB0009B00D2588307DC0EFF23A3409A438B0788
:100BC0001B0E8407E40EA3401A43114B0407240FA5
:100BD000083CA408A4001A5118E00E4A03231B0283
:100BE000D21883089B00D2588307DC0EFF23A34052
:100BF0009A438B071B0E8407E40EA3401A43054B50
:100C0000032424021B198408A4001A5110BD0000FB
:100C10001CED00E000E100E070470000014600BF6D
:100C2000074880680F22120210401040000A80001E
:100C3000044A105CC206D20E0846D040704700003D
:100C400000100240281B0008014600BF06488068CB
:100C5000072212031040000B8000044A105CC206F9
:100C6000D20E0846D040704700100240681B0008B2
:100C700070B5FFF71BFE002811D0082804D01828F3
:100C800004D020280AD106E0124C20E000BF012445
:100C9000E40300BF1BE00124E40318E000BF00BF31
:100CA0000D4800680721C9020840C10A0120884098
:100CB000054609494968072252031140490B89003A
:100CC000064A50582946FFF713FA044600BF00BFF2
:100CD000204670BD00366E0100100240881B0008DF
:100CE0007047704710B50E484068000C00040D496D
:100CF000098889B208430A494860084640680A4999
:100D00000840084940318988C905C9090843044990
:100D10004860C803054988606420FFF795FC10BD52
:100D2000001002400001FF1FFFFF00FE00ED00E089
:100D30000FB410B503A9044B044A029800F018F848
:100D400010BC08BC04B01847F91800083000002097
:100D500002E008C8121F08C1002AFAD17047704784
:100D6000002001E001C1121F002AFBD170470000E2
:100D7000FFB58FB00546002606E025280AD0129A56
:100D8000119990476D1C761C28780028F5D13046C3
:100D900013B0F0BD002402940121B54A009400E094
:100DA00004436D1C2B780846203B98401042F7D135
:100DB00028782A280ED002222878014630390929BD
:100DC00016D802990A2359433039401814436D1C30
:100DD0000290F1E7109802C802911090002904DAFD
:100DE00001204003044348420290022004436D1C4A
:100DF00028782E2817D10420044368786D1C2A28EF
:100E00000CD110986D1C02C8009110900BE0009955
:100E10000A225143303940186D1C00902878014651
:100E200030390929F3D928786C2810D006DC4C28F1
:100E30001AD068280ED06A2817D104E0742813D07D
:100E40007A2812D110E00120400504430CE0012172
:100E5000090501E0032109050C436978814203D1AA
:100E60000120000524186D1C6D1C2878692874D099
:100E700006DC00288BD0632827D0642806D16CE0DC
:100E80006E2808D073282CD0752878D0129A119922
:100E90009047761C5FE06002400F022809D00328CB
:100EA0000DD00428109801680DD00E60001D109020
:100EB00051E01098F21701680E604A60F6E710984A
:100EC00001680E80F2E70E70F0E710986A4601782C
:100ED0001173001D10900020507303A80190012091
:100EE00005E0109802C8019110900020C0436107EE
:100EF0000CD5002700E07F1C00998F420FDA874253
:100F0000F9DB0199C95D0029F5D108E0002700E06F
:100F10007F1C8742FCDB0199C95D0029F8D102984A
:100F20002146C01B0290129B119A00F0B3F8801961
:100F3000C61907E0019801990078491C0191129A9D
:100F4000119990477F1EF5D22146129B119A029863
:100F500000F090F886196D1C16E70A200190109990
:100F600001C910916102490F032900D100B204297F
:100F700000D140B2002803DA40422D2103E00DE009
:100F8000210504D52B216A461173012103E0E107F5
:100F900011D02021F7E70CAF0C9114E00A2001904A
:100FA000109901C910916102490F032900D180B243
:100FB000042900D1C0B20021EDE70199FFF798F8AC
:100FC00030317F1E39700028F7D104A8C01B2030B3
:100FD0000190600704D5012000048443009801E0DB
:100FE000012000900199884201DD401A00E00020B4
:100FF000411800900C9809180298401A0290E003DA
:1010000006D42146129B119A029800F043F88619E3
:1010100000200D9008E003A9085C129A11999047EE
:101020000D98401C761C0D900C998842F3DBE00370
:101030000CD52146129B119A029800F02BF88619C4
:1010400004E0129A302011999047761C0099481EAE
:1010500000900029F5DC05E03878129A7F1C119980
:101060009047761C0199481E01900029F4DC6BE73B
:1010700009280100F8B5044600251E4617468804D5
:1010800004D405E039462020B0476D1C641EF9D514
:101090002846F8BDFFB50446002581B01E46C803AA
:1010A00001D5302700E02027880404D505E0384624
:1010B0000399B0476D1C641EF9D5284605B0F0BDF4
:1010C000F8B50C4615461E46069800281FD000F0BD
:1010D0001FF8002712E000F005FD20200521090778
:1010E000886100BF2046FFF7FFFC20210520000794
:1010F000FFF781FB2846FFF7F7FC7F1CB742EADBCE
:1011000000F0E8FC202105200007FFF774FBF8BD84
:1011100010B500F0A5FB00F001F810BD00B587B0D8
:1011200001201049496B01430E4A51631146496B36
:101130000140009100BF00BF2020019001200290DB
:1011400003200390002004900120059001A90520B0
:101150000007FFF7D1FA202105200007FFF74BFB1E
:1011600007B000BD0010024070B504460D46012DC9
:1011700016D10C48FFF7A8F806B2324600212046E7
:1011800000F09DF80848FFF79FF806B232460121AB
:10119000204600F094F86288218804A0FFF7C8FD7B
:1011A00070BD000002000004040000080D0A736511
:1011B0006E736F723A5B25645D5B25645D0D0A009A
:1011C000052202810622C2807047000070B50446E5
:1011D0000D46002D35D020881A4A1B4900F08AFCA4
:1011E000002806D16088174A002100F083FC0028FF
:1011F00005D0204600F060F80120207115E0E1885C
:101200002089814205DAE088401CE08001202071BD
:101210000BE0E1882089814205D1E088401CE08014
:101220000020207101E00020207120790749097811
:10123000884206D0217906A0FFF77AFD207903497C
:10124000087070BD4C040000FF0F00002C0000204F
:1012500070762D3E726573756C743A5B25645D0D16
:101260000A00000070B504460025628821880BA0A2
:10127000FFF75EFD60880E4A0E4900F03BFC002837
:1012800006D120880A4A002100F034FC002801D051
:10129000012500E00025284670BD0000616463312F
:1012A0003A2025642C20616463323A2025640000D2
:1012B0004C040000FF0F00000022C280704700298C
:1012C00000D10280012900D14280704710B500F0A2
:1012D0000BFB0948FFF796F808A0FFF729FD00F07F
:1012E0001DFC0B48FFF76CFF00F0B0FB00F012F89C
:1012F000FFF70EFF10BD00000038014068656C6C00
:101300006F776F726C642E2E2E2E0D0A0000000077
:10131000960000200A21064881800B21418001208F
:10132000034994390871052101480830418070470C
:1013300038010020002286210A527047FFB581B093
:1013400004460E461F46002596210398FEF7E6FE4A
:1013500085B2002F5ED0042E04D0052E1FD0062E9D
:1013600057D139E0082D19DB0021A160E160002090
:1013700012E0291A491E8B0021462431C958A2685F
:101380005218A260291A491E8B0021465431C958AF
:10139000E2685218E260401C0828EADB39E00A2DB6
:1013A00019DB002121616161002012E0291A491E28
:1013B0008B0021462431C958226952182261291A0A
:1013C000491E8B0021465431C95862695218626126
:1013D000401C0A28EADB1CE00C2D19DB0021A1616E
:1013E000E161002012E0291A491E8B0021462431B8
:1013F000C958A2695218A261291A491E8B002146B8
:101400005431C958E2695218E261401C0C28EADBE9
:1014100000BF00BF05B0F0BD002930D0836A436231
:10142000C36A8362036BC362436B0363836B43636F
:10143000C36B8363036CC363436C0364836C436457
:10144000C36C8364036DC36400230365836D4365CC
:10145000C36D8365036EC365436E0366836E436627
:10146000C36E8366036FC366436F0367836F43670F
:10147000C36F836780221358C367002313507047DC
:10148000F8B504460E461746002596213046FEF76D
:1014900045FE85B20C2D10DA002F07D0A90020469A
:1014A00024304158491CAA00815006E0A90020467A
:1014B00054304158491CAA008150F8BD10B504466B
:1014C0000021E1606161E161A1602161A1613021E0
:1014D00020465430FEF73DFE302120462430FEF7F2
:1014E00038FE00218C20015188200151A020015597
:1014F0009C20015310BD0000F8B504460E4600279D
:10150000002E7DD0A020005D002826D18548FFF761
:10151000A9FE012813D19C20015B9E20005B814223
:1015200006DA9C20005B401C81B29C2001530BE03A
:101530000121A020015500219C20015304E000213D
:10154000A02001559C200153A020035D9E20025B3A
:101550009C20015B74A0FFF7EBFBA020005D01283D
:101560004ED17048FFF77EFE01280AD18C20005B27
:1015700081B201222046FFF783FF0021862001531C
:1015800017E08C20005B81B200222046FFF778FF35
:101590008620005B962806DA8620005B401C81B21C
:1015A0008620015305E02046FFF788FF2046FFF71D
:1015B000C1FE8C200159491C015100594B210901E0
:1015C000884207D18C20005B82B2012304215F484E
:1015D000FFF7B4FE8C2000595D49884207D18C206A
:1015E000005B82B2012304215848FFF7A7FE8C203C
:1015F000005957499631884211D18C20005B00E098
:101600008FE082B2012304215048FFF797FE8C201F
:10161000005B82B2012305214C48FFF78FFE8C202E
:1016200000594C4988420FD18C20005B82B20123C3
:1016300004214648FFF782FE8C20005B82B2012322
:1016400005214248FFF77AFE8C200059E121C900AC
:10165000884217D18C20005B82B2012304213B48D1
:10166000FFF76CFE8C20005B82B201230521374816
:10167000FFF764FE8C20005B82B201230621334811
:10168000FFF75CFE0121314800F0B0F8012815D1C8
:1016900031A0FFF74DFB7D20C000FFF725FA0120A8
:1016A0000623FF22F532114600902F48FFF708FD70
:1016B0002046FFF703FF2046FFF73CFE2BA0E26821
:1016C000A168FFF735FB30A062692169FFF730FBA5
:1016D00033A0E269A169FFF72BFB00250BE0A9000D
:1016E000204654304358A90030384258294632A089
:1016F000FFF71EFB6D1C0C2DF1DB8620025B8C209E
:10170000015933A0FFF714FB8C200059E121C900D7
:10171000884206D901210D48FFF77EFE0D498C2035
:101720000151F8BD96000020656E7472792D7761C5
:1017300069742D7469636B5B25645D54415B25643A
:101740005D666C61675B25645D0D0A00A400002086
:101750004605000072060000616C726561647920C4
:101760006D6F766521212100480100200D0A6F6E02
:1017700034305B253032645D6F666634305B253013
:1017800032645D0D0A0000006F6E35305B2530322B
:10179000645D6F666635305B253032645D0D0A002E
:1017A0006F6E36305B253032645D6F666636305B57
:1017B000253032645D0D0A005B25645D6F6E5B252C
:1017C0003032645D6F66665B253032645D0D0A0001
:1017D00073756D5B25645D636F6E74696E75734FB1
:1017E00046465B25645D0D0A0000000002460029A4
:1017F00018D00023202083540C4B9068984202D9C3
:10180000012320208354094BD2331069984202D916
:10181000012320208354064B9069984202D901236A
:10182000202083542020805C704700007404000056
:10183000DC05000008B501200005084909680143DE
:10184000064A1160114609680140009100BF00BFBF
:10185000FEF7BCFCFEF79AFC08BD000040100240F9
:1018600000B58DB00120FEF7D5FF022007900020C3
:1018700008900320099002200B9007A9052000077B
:10188000FEF73AFF0220FEF7C5FF182101A8FEF778
:1018900060FC202001900120029000200390049021
:1018A0000120059001A90448FEF726FF20210248E7
:1018B000FEF79FFF0DB000BD0004005000B587B0DB
:1018C0000220FEF7A7FF20200190002002900320B5
:1018D00003900220059001A90248FEF70DFF07B012
:1018E00000BD00000004005010B5FEF747FEFFF7F2
:1018F000A1FFFFF7B5FF10BD70B504460D46E1B27C
:101900000848FFF7EFF800BF0648FFF745F8002842
:10191000FAD000BF4020C0430249086000BF204603
:1019200070BD00000038014008B50024FFF7CEFC70
:101930002248FFF7D9F801212148FFF715FC20487C
:10194000FFF790FC012808D10223FF22F53211464F
:1019500000901C48FFF7B4FB08E001200346FF227B
:10196000F532114600901748FFF7AAFB25E000BFAB
:1019700015480069400840001349086100BF00F0A5
:1019800089F81248FEF73EFD2146641C10A0FFF7BF
:10199000CFF901210A48FFF7E7FB01210848FFF7CB
:1019A00015FC01210D48FFF7A7FD05484288018875
:1019B0000BA0FFF7BDF900F029F8D8E77017000079
:1019C0009600002048010020007C004000380140C3
:1019D0005469636B2D5B25645D0D0A00A400002033
:1019E00073656E736F725F70726573733A5B2564B3
:1019F0005D5B25645D0D0A0010B5034800F05EF8DC
:101A0000FFF75CFF10BD00000038014010B500BFBB
:101A10000D480069012108430B49086100BFFF2000
:101A2000FC308969090C09040143074A916100BF30
:101A3000022011460969062291430143024A1161BD
:101A400000BFFEF74FFD10BD007C004010B5012027
:101A500040070D49096801430B4A116000BF00BFF0
:101A6000114649688143516000BFFEF799FCFEF7BB
:101A70007FFC0720400205490860002048600448B8
:101A8000FEF7FAFE10BD0000801802402000002082
:101A9000007C004010B5064906480068FEF728FBA8
:101AA000FF216931484380080349086010BD0000E8
:101AB00040420F00000000202800002010B504461E
:101AC0000348FEF70FFF05200007FEF7EBFD10BDF2
:101AD0000038014010B520210148FEF78AFE10BDF4
:101AE0000004005020200249886100BF70470000B8
:101AF0000004005010B5034600208B4206DD5C1A3E
:101B0000944201DD012007E0002005E0CC1A944258
:101B100001DD012000E0002010BD0000032101488C
:101B2000417070479200002000000000000000009B
:101B300000000000000000000000000000000000A5
:101B40000000000000000000010000000200000092
:101B50000300000004000000060000000700000071
:101B60000800000009000000000000000000000064
:101B70000000000000000000010000000200000062
:101B8000030000000400000000093D0000127A007C
:101B9000000000000000000000366E0100000000A0
:101BA0000000000000000000C81B0008000000202A
:101BB00034000000500D0008FC1B00083400002019
:101BC0002C050000600D000800366E01554152548E
:101BD0002054657374000000000000000000000045
:101BE00000000000000000000000000000000000F5
:0C1BF00000000000FF00000000000000EA
:04000005080000C12E
:00000001FF
